:020000040800F2
:10000000000002208D0500081504000821040008E6
:100010002904000831040008390400080000000029
:100020000000000000000000000000004D04000877
:10003000410400080000000059040008650400089D
:10004000D5050008D5050008D5050008D505000828
:10005000D5050008D5050008D5050008D505000818
:10006000D5050008D5050008D5050008ED1B0008DA
:10007000D5050008D5050008D5050008D5050008F8
:10008000D5050008D5050008D5050008D5050008E8
:10009000D5050008D5050008D5050008D5050008D8
:1000A000D5050008D5050008D5050008D5050008C8
:1000B00071040008D5050008D5050008D50500081D
:1000C000D5050008D5050008D5050008D5050008A8
:1000D000D5050008D5050008D5050008D505000898
:1000E000D5050008D5050008D5050008D505000888
:1000F000D5050008D5050008D5050008E11B000856
:10010000D5050008D5050008D5050008F91B00082D
:10011000D5050008D5050008D5050008D505000857
:10012000D5050008D5050008D5050008D505000847
:10013000D5050008D5050008D5050008D505000837
:10014000D5050008D5050008D5050008D505000827
:10015000D5050008D5050008D5050008D505000817
:10016000D5050008D5050008D5050008D505000807
:10017000D5050008D5050008D5050008D5050008F7
:08018000D5050008D5050008B3
:1001880010B5054C237833B9044810B10448AFF3CF
:1001980000800121217010BD200000200000000017
:1001A800785B000808B5064B1BB106480649AFF353
:1001B80000800648016811B1054B03B1984708BD96
:1001C80000000000785B00082400002020000020C8
:1001D8000000000080B500AF4FF46D43CEF200037D
:1001E8004FF46D42CEF20002D2F8882042F4700239
:1001F800C3F888204FF46053C4F202034FF46052EE
:10020800C4F20202126842F001021A604FF460530D
:10021800C4F202034FF000029A604FF46053C4F234
:1002280002034FF46052C4F20202126822F0847290
:1002380022F480321A604FF46053C4F2020343F28E
:100248001002C2F200425A604FF46053C4F2020333
:100258004FF46052C4F20202126822F480221A603B
:100268004FF46053C4F202034FF00002DA6000F06A
:1002780009F84FF46D43CEF200034FF000629A6024
:1002880080BD00BF80B483B000AF4FF000037B6037
:100298004FF000033B604FF46053C4F202034FF485
:1002A8006052C4F20202126842F480321A604FF4BB
:1002B8006053C4F202031B6803F400333B607B689D
:1002C80003F101037B603B68002B03D17B68B3F526
:1002D800A06FECD14FF46053C4F202031B6803F41F
:1002E8000033002B03D04FF001033B6002E04FF0D6
:1002F80000033B603B68012B40F082804FF4605361
:10030800C4F202034FF46052C4F20202126C42F0CB
:1003180080521A644FF4E043C4F200034FF4E04201
:10032800C4F20002126842F480421A604FF460532B
:10033800C4F202034FF46052C4F2020292689A6057
:100348004FF46053C4F202034FF46052C4F2020245
:10035800926842F400429A604FF46053C4F2020378
:100368004FF46052C4F20202926842F4A0529A60BA
:100378004FF46053C4F2020345F20842C0F24072DF
:100388005A604FF46053C4F202034FF46052C4F24F
:100398000202126842F080721A6000BF4FF4605384
:1003A800C4F202031B6803F00073002BF6D04FF46D
:1003B8007053C4F2020340F205621A604FF46053AE
:1003C800C4F202034FF46052C4F20202926822F0AF
:1003D80003029A604FF46053C4F202034FF4605270
:1003E800C4F20202926842F002029A6000BF4FF41F
:1003F8006053C4F202039B6803F00C03082BF6D188
:1004080007F10C07BD4680BC704700BF80B400AF41
:10041800BD4680BC704700BF80B400AFFEE700BF98
:1004280080B400AFFEE700BF80B400AFFEE700BFB6
:1004380080B400AFFEE700BF80B400AFBD4680BC0B
:10044800704700BF80B400AFBD4680BC704700BF96
:1004580080B400AFBD4680BC704700BF80B400AF19
:10046800BD4680BC704700BF80B500AF4FF08040EC
:100478004FF0020101F0C4FF0346002B6AD04FF091
:1004880080404FF0020101F0EBFF40F23C03C2F262
:1004980000031B889BB2B3F5EF7F08D84FF40060C8
:1004A800C4F200004FF4487101F020FF23E040F24D
:1004B8003C03C2F200031B889AB240F20B239A4213
:1004C80008D84FF40060C4F200004FF0000101F0BA
:1004D8000DFF10E040F23C03C2F200031B889BB200
:1004E800B3F5037F07D14FF40060C4F200004FF466
:1004F800487101F0FBFE40F23C03C2F200031B8886
:100508009BB203F101039AB240F23C03C2F200032A
:100518001A8040F23C03C2F200031B889AB240F2F0
:100528000D239A4206D140F23C03C2F200034FF079
:1005380000021A8040F23C03C2F200031B889BB2FF
:10054800B3F5F17F06D140F24403C2F200034FF045
:1005580001021A604FF080404FF0040101F050FF93
:100568000346002B0CD04FF080404FF0040101F0FF
:1005780077FF40F24003C2F200034FF001021A80F5
:1005880080BD00BF002103E00B4B5B584350043192
:100598000A480B4B42189A42F6D30A4A02E0002353
:1005A80042F8043B084B9A42F9D3FFF713FE02F0D6
:1005B80073FD00F09BFA7047985B0008000000206C
:1005C8002000002020000020BCEA0020FEE70000F8
:1005D80080B491B000AFF860B9607A604FF0000362
:1005E8003B634FF00003FB624FF001037B634FF066
:1005F8000003BB62BB681B78FB63A1E13B6B03F1A3
:100608000103BA68D3181B781A46FB6BD3187B62B0
:100618003B6B03F10203BA68D3181B781A467B6A4E
:10062800D3183B623B6B03F10303BA68D3181B78FA
:100638001A463B6AD318FB61FB6B1F2B03D94FF09B
:100648000103BB6310E07B6A1F2B03D94FF0020341
:10065800BB6309E03B6A1F2B03D94FF00303BB635D
:1006680002E04FF00403BB63BB6B03F1FF33032BC2
:1006780000F2628101A252F823F000BF950600083B
:10068800FF0600089307000857080008FB6A4FEAAE
:1006980083037A68D3184FF0FF321A607B6B002B04
:1006A8000DD1FB6A4FEA83037A68D318FA6A4FEAD6
:1006B800820279688A1812686FEA02021A60FB6B74
:1006C800202B13D13B6B03F101033B63BA683B6BEF
:1006D800D3181B78FB637B6B002B03D14FF001030E
:1006E8007B6329E14FF000037B6325E1FB6BA3F1FA
:1006F8002003FB6320E17B6AA3F12003BB61FB6A53
:100708004FEA83037A68D318FA6BC2F120024FF0DC
:10071800FF3101FA02F21A607B6B002B0DD1FB6AE4
:100728004FEA83037A68D318FA6A4FEA8202796833
:100738008A1812686FEA02021A60BB69002B09D195
:100748003B6B03F102033B63BA683B6BD3181B781E
:10075800FB63F1E03B6B03F101033B63FB6BC3F10C
:100768002003BB62BA683B6BD3181B781A46BB6A76
:10077800D31AFB637B6B002B03D14FF001037B6320
:10078800DAE04FF000037B63D6E03B6AA3F1200375
:10079800BB61FB6A4FEA83037A68D318FA6BC2F12C
:1007A80020024FF0FF3101FA02F21A607B6AC3F1AE
:1007B80020034FF0010202FA03F303F1FF337B61D8
:1007C800FB6A4FEA83037A68D318FA6A4FEA82020F
:1007D80079688A1811687A698A181A607B6B002B05
:1007E8000DD1FB6A4FEA83037A68D318FA6A4FEA95
:1007F800820279688A1812686FEA02021A60BB6975
:10080800002B13D13B6B03F103033B63BA683B6BCB
:10081800D3181B78FB637B6B002B03D14FF00103CC
:100828007B6389E04FF000037B6385E03B6B03F15A
:1008380002033B637B6AC3F12003BB62BA683B6B6C
:10084800D3181B781A46BB6AD31AFB6374E0FB699A
:10085800A3F12003BB61FB6A4FEA83037A68D318CC
:10086800796AFA6B8A1A4FF0010101FA02F202F171
:10087800FF321A60FB6A4FEA83037A68D318FA6A70
:100888004FEA820279688A1811687A6AC2F12002EE
:1008980001FA02F21A603B6AC3F120034FF0010229
:1008A80002FA03F303F1FF337B61FB6A4FEA830328
:1008B8007A68D318FA6A4FEA820279688A18116846
:1008C8007A698A181A607B6B012B0DD1FB6A4FEA93
:1008D80083037A68D318FA6A4FEA820279688A1819
:1008E80012686FEA02021A60BB69002B09D13B6BE0
:1008F80003F104033B63BA683B6BD3181B78FB63B3
:1009080019E03B6B03F103033B633B6AC3F120032C
:10091800BB62BA683B6BD3181B781A46BB6AD31AFA
:10092800FB637B6B002B03D14FF001037B6302E079
:100938004FF000037B6300BFFB6A03F10103FB6216
:10094800FA6A40F60F039A427FF658AEFB68012B0D
:1009580046D14FF0A3033B630FE03A6B13464FEACF
:1009680043039B184FEAC3037A68D3184FF0FF324A
:100978001A603B6B03F101033B633B6BB22BECD971
:100988004FF000033B630FE03A6B13464FEA430313
:100998009B184FEAC3037A68D3184FF0FF321A60E6
:1009A8003B6B03F101033B633B6B052BECD94FF425
:1009B800A8733B630FE03A6B13464FEA43039B1857
:1009C8004FEAC3037A68D3184FF0FF321A603B6BC3
:1009D80003F101033B633A6B40F257139A42EAD999
:1009E800FB68042B2FD14FF000033B630FE03A6BF9
:1009F80013464FEA43039B184FEAC3037A68D31898
:100A08004FF0FF321A603B6B03F101033B633B6B12
:100A1800052BECD94FF4A8733B630FE03A6B1346F0
:100A28004FEA43039B184FEAC3037A68D3184FF081
:100A3800FF321A603B6B03F101033B633A6B40F2F0
:100A480057139A42EAD9FB68072B2FD14FF0A3031B
:100A58003B630FE03A6B13464FEA43039B184FEA98
:100A6800C3037A68D3184FF0FF321A603B6B03F167
:100A780001033B633B6BB22BECD94FF4A8733B6388
:100A88000FE03A6B13464FEA43039B184FEAC30340
:100A98007A68D3184FF0FF321A603B6B03F10103F9
:100AA8003B633A6B40F257139A42EAD9FB680A2B28
:100AB80016D14FF0A3033B630FE03A6B13464FEA9E
:100AC80043039B184FEAC3037A68D3184FF0FF32E9
:100AD8001A603B6B03F101033B633B6BB12BECD911
:100AE80007F14407BD4680BC704700BF2DE9E04FC1
:100AF80084B000AF00F088FD00F0AEFD00F032FEDB
:100B080000F05AFE00F0B4FE00F0CAFE4BF698431F
:100B1800C2F200034FF000021A604FF40060C4F202
:100B280002004FF03F0101F035FF4FF40060C4F2BE
:100B380000004FF0010101F017FA4FF080404FF02C
:100B4800010101F011FA4FF48060C4F200004FF087
:100B5800010101F009FA4FF49040C4F200004FF08F
:100B680040014FF0010201F061F946F22800C4F299
:100B780002004FF0010102F0FDF800BF46F2280024
:100B8800C4F2020002F068F90346012BF6D14FF0D7
:100B98000003FB600CE040F2A003C2F20003FA6815
:100BA8004FF0FF3143F82210FB6803F10103FB60AB
:100BB800FA6842F6DF639A42EDD94FF00003FB6012
:100BC8004FF00003BB604BF62843C2F200034FF01E
:100BD80001021A604BF69C43C2F200034FF0000278
:100BE8001A604BF62043C2F200034FF000021A606D
:100BF8004BF69043C2F200034FF000021A604EF623
:100C08003C23C2F200034FF000021A6000E000BF6C
:100C180040F24003C2F200031B889BB2012B53D160
:100C280040F23C03C2F200031A6840F2DF139A4212
:100C380043D8DFF8C059DFF8C0A9DFF8C069B0466B
:100C4800A9EB090958F8046B2E60DAF800B0BBF17B
:100C58000F0FFADB58F8046B2E60DAF800B0BBF11E
:100C6800100FFADC09F10109B9F5487FEDD1DFF879
:100C780090592D684FF0640A05FB0AFADFF8845989
:100C88005544DFF87869B346A9EB090955F804AB70
:100C9800A8EB0808A6EB06065FEA4A0A01D2A6F105
:100CA80001064BF8046B08F10108B8F1200FF1D1E7
:100CB80009F10109B9F1190FE8D140F24003C2F274
:100CC80000034FF000021A8040F24403C2F200030E
:100CD8001B68012B9BD14FF44060C4F202004FF413
:100CE800805101F065FE46F22800C4F202004FF47C
:100CF8000061C1F2000102F0CBF803461A464BF638
:100D08002C43C2F200031A704BF62C43C2F20003C4
:100D18001B78002B00F0008146F22800C4F2020084
:100D28004FF40061C1F2000102F0F6F846F2280023
:100D3800C4F2020002F074F80346002B14BF00222C
:100D480001224CF6F813C2F200031A604FF00003B8
:100D5800FB60DDE04CF6F813C2F200031B68002BC1
:100D68000CD140F25003C2F20003FA689B181A78BB
:100D78004BF62D43C2F200031A700BE04BF63843D2
:100D8800C2F20003FA689B181A784BF62D43C2F298
:100D980000031A704BF62D43C2F200031B780A2B8E
:100DA80016D04BF69843C2F200031A684BF62D434F
:100DB800C2F2000319784CF62C13C2F200039954BE
:100DC80002F101024BF69843C2F200031A609BE05D
:100DD8004BF69843C2F200034FF000021A604CF63B
:100DE8002C13C2F200031B78242B40F08D804CF6A4
:100DF8002C13C2F200035B78472B40F085804CF639
:100E08002C13C2F20003DB78522B7DD14CF62C1345
:100E1800C2F200035B79432B76D14FF001033B60AC
:100E28004FF02303BB6019E04CF62C13C2F2000309
:100E3800BA689B181B78572B08D04CF62C13C2F2B3
:100E48000003BA689B181B78452B03D14FF00003A9
:100E58003B6006E0BB6803F10103BB60BB682C2B59
:100E6800E2D93B68002B1CD14FF001033B60BB6803
:100E78007B6010E04CF62C13C2F200037A689B18D2
:100E88001B782E2B03D14FF000033B6009E07B68F1
:100E980003F101037B60BB6803F107027B689A4298
:100EA800E8D83B68002B2FD17B68332B2CD87B6884
:100EB80003F101024CF62C13C2F200039B5CA3F170
:100EC80030024BF62043C2F200031A607B6803F13C
:100ED800FF324CF62C13C2F200039B5CA3F13002E4
:100EE8004BF69043C2F200031A607B68A3F102023A
:100EF8004CF62C13C2F200039B5CA3F130024EF6B1
:100F08003C23C2F200031A60FB6803F10103FB6093
:100F1800FB684F2B7FF61EAF4BF62043C2F200034F
:100F28001B68002B06D14BF62043C2F200034FF09A
:100F38000A021A604BF69043C2F200031B68002BAA
:100F480006D14BF69043C2F200034FF00A021A6032
:100F58004EF63C23C2F200031B68002B06D04EF667
:100F68003C23C2F200031B68092B06D94EF63C232A
:100F7800C2F2000340F2E7321A604BF62043C2F295
:100F880000031B6803F1FF33092B00F2998001A2CB
:100F980052F823F0C50F0008DF0F0008F90F00080A
:100FA800131000082D1000084710000861100008F1
:100FB8007B10000895100008AF1000084FF00100E2
:100FC80043F2E801C0F600014CF6FC12C2F200023E
:100FD800FFF7FEFA74E04FF0020043F2A831C0F6C2
:100FE80000014CF6FC12C2F20002FFF7F1FA67E0CA
:100FF8004FF0030043F22871C0F600014CF6FC12D2
:10100800C2F20002FFF7E4FA5AE04FF0040043F698
:10101800C821C0F600014CF6FC12C2F20002FFF72C
:10102800D7FA4DE04FF0050043F60871C0F600010D
:101038004CF6FC12C2F20002FFF7CAFA40E04FF089
:10104800060044F2A821C0F600014CF6FC12C2F2D8
:101058000002FFF7BDFA33E04FF0070044F2487191
:10106800C0F600014CF6FC12C2F20002FFF7B0FA1B
:1010780026E04FF0080044F66821C0F600014CF65F
:10108800FC12C2F20002FFF7A3FA19E04FF00900C0
:1010980045F24801C0F600014CF6FC12C2F200020B
:1010A800FFF796FA0CE04FF00A0045F22851C0F617
:1010B80000014CF6FC12C2F20002FFF789FA00BFE9
:1010C8004BF63043C2F200034FF000021A604FF0B3
:1010D8000003FB604DE0FA6813464FEA83039B1850
:1010E8004FEA83029B1803F53E7202F107024CF6A1
:1010F800F413C2F200031A604FF00003BB6031E042
:101108004CF6F413C2F200031A684BF63043C2F2ED
:10111800000319684CF6FC13C2F2000353F82110BF
:1011280040F2A003C2F2000343F822104CF6F41375
:10113800C2F200031B6803F101024CF6F413C2F279
:1011480000031A604BF63043C2F200031B6803F138
:1011580001024BF63043C2F200031A60BB6803F188
:101168000103BB60BB68052BCAD9FB6803F1010307
:10117800FB60FA6840F255139A42ACD94BF690439B
:10118800C2F200031B6803F1FF33092B00F29A80B7
:1011980001A252F823F000BFC9110008E3110008AA
:1011A800FD11000817120008311200084B12000840
:1011B800651200087F12000899120008B31200088F
:1011C8004FF0010043F2E801C0F600014CF6FC12B2
:1011D800C2F20002FFF7FCF974E04FF0020043F29C
:1011E800A831C0F600014CF6FC12C2F20002FFF76B
:1011F800EFF967E04FF0030043F22871C0F60001F1
:101208004CF6FC12C2F20002FFF7E2F95AE04FF086
:10121800040043F6C821C0F600014CF6FC12C2F2E5
:101228000002FFF7D5F94DE04FF0050043F60871CD
:10123800C0F600014CF6FC12C2F20002FFF7C8F932
:1012480040E04FF0060044F2A821C0F600014CF639
:10125800FC12C2F20002FFF7BBF933E04FF00700BF
:1012680044F24871C0F600014CF6FC12C2F20002CA
:10127800FFF7AEF926E04FF0080044F66821C0F603
:1012880000014CF6FC12C2F20002FFF7A1F919E0C6
:101298004FF0090045F24801C0F600014CF6FC1277
:1012A800C2F20002FFF794F90CE04FF00A0045F291
:1012B8002851C0F600014CF6FC12C2F20002FFF7FA
:1012C80087F900BF4BF63043C2F200034FF000022B
:1012D8001A604FF00003FB604DE0FA6813464FEACE
:1012E80083039B184FEA83029B1803F53C7202F1B3
:1012F80007024CF6F413C2F200031A604FF0000321
:10130800BB6031E04CF6F413C2F200031A684BF6E6
:101318003043C2F2000319684CF6FC13C2F2000312
:1013280053F8211040F2A003C2F2000343F8221040
:101338004CF6F413C2F200031B6803F101024CF6E9
:10134800F413C2F200031A604BF63043C2F20003F2
:101358001B6803F101024BF63043C2F200031A6026
:10136800BB6803F10103BB60BB68052BCAD9FB68E6
:1013780003F10103FB60FA6840F255139A42ACD9B5
:101388004EF63C23C2F200031B68052B51D0052BF7
:101398000BD8022B26D0022B02D8012B15D09FE0A8
:1013A800032B2CD0042B37D09AE0082B68D0082BBD
:1013B80004D8062B4AD0072B55D091E0092B6CD0C6
:1013C80040F2E732934275D08AE04FF0010043F2D1
:1013D800E801C0F600014CF6FC12C2F20002FFF769
:1013E800F7F87DE04FF0020043F2A831C0F60001A3
:1013F8004CF6FC12C2F20002FFF7EAF870E04FF078
:10140800030043F22871C0F600014CF6FC12C2F248
:101418000002FFF7DDF863E04FF0040043F6C8214F
:10142800C0F600014CF6FC12C2F20002FFF7D0F839
:1014380056E04FF0050043F60871C0F600014CF67F
:10144800FC12C2F20002FFF7C3F849E04FF00600B1
:1014580044F2A821C0F600014CF6FC12C2F20002C8
:10146800FFF7B6F83CE04FF0070044F24871C0F6C9
:1014780000014CF6FC12C2F20002FFF7A9F82FE0B7
:101488004FF0080044F66821C0F600014CF6FC1243
:10149800C2F20002FFF79CF822E04FF0090045F283
:1014A8004801C0F600014CF6FC12C2F20002FFF738
:1014B8008FF815E04FF00003FB600CE04CF6FC13CE
:1014C800C2F20003FA684FF0FF3143F82210FB68BC
:1014D80003F10103FB60FA6840F60F039A42EDD965
:1014E8004BF63043C2F200034FF000021A604FF08F
:1014F8000003FB604BE0FA6813464FEA83039B182E
:101508004FEA83029B1803F53C724CF6F413C2F2BF
:1015180000031A604FF00003BB6031E04CF6F4138F
:10152800C2F200031A684BF63043C2F2000319688E
:101538004CF6FC13C2F2000353F8211040F2A0034A
:10154800C2F2000343F822104CF6F413C2F200036F
:101558001B6803F101024CF6F413C2F200031A608F
:101568004BF63043C2F200031B6803F101024BF64D
:101578003043C2F200031A60BB6803F10103BB6089
:10158800BB68052BCAD9FB6803F10103FB60FA6845
:1015980040F255139A42AED94FF00003FB601CE0AD
:1015A800FA6813464FEA83039B184FEA83029B1895
:1015B80003F5005202F1170245F6C823C0F60003EE
:1015C800F96853F8211040F2A003C2F2000343F86F
:1015D8002210FB6803F10103FB60FB682B2BDFD9AA
:1015E80040F24403C2F200034FF000021A60FFF712
:1015F8000EBB00001408024024040040A4BC0020D4
:101608003C000020A000002080B500AF4FF007008C
:101618004FF0010101F0E8F84FF480204FF001018C
:1016280001F0E2F84FF002004FF0010101F0B0F8CC
:101638004FF004004FF0010101F0AAF84FF0080044
:101648004FF0010101F0A4F84FF400104FF0010130
:1016580001F09EF880BD00BF80B582B000AF4FF4A6
:1016680070433B604FF001033B714FF003037B7104
:101678004FF00003BB714FF00003FB713B464FF482
:101688004060C4F20200194601F0DAF84FF4007322
:101698003B604FF002033B714FF002037B714FF048
:1016A8000003BB714FF00103FB713B464FF44060F0
:1016B800C4F20200194601F0C3F84FF44060C4F2C6
:1016C80002004FF009014FF0070201F083F94FF0D3
:1016D8003F033B604FF001033B714FF00003BB71C8
:1016E8004FF003037B714FF00003FB713B464FF44F
:1016F8000060C4F20200194601F0A2F84FF001039D
:101708003B604FF002033B714FF00103FB713B4616
:101718004FF48060C4F20200194601F091F84FF4CA
:101728008060C4F202004FF000014FF0020201F0A5
:1017380051F94FF040033B603B464FF48060C4F2E0
:101748000200194601F07CF84FF48060C4F20200F0
:101758004FF006014FF0020201F03CF907F10807CB
:10176800BD4680BD80B584B000AF4FF496533B6052
:101778004FF00003BB804FF00003FB804FF00003E5
:101788003B814FF00003BB814FF004037B813B4654
:101798004FF49040C4F20000194600F051FA4FF49B
:1017A8009040C4F200004FF0010100F01FFB07F168
:1017B8001007BD4680BD00BF80B590B000AF46F2AF
:1017C8002800C4F2020001F05BF944F60403C4F2F5
:1017D8000003BB604FF00003BB614FF48063FB6103
:1017E8004FF000033B624FF000037B624FF48073BD
:1017F800BB624FF004033B634FF001037B634FF080
:101808000003BB634FF00003FB634FF44033FB62FC
:101818004FF000637B604FF000033B6140F25003E0
:10182800C2F20003FB604FF050037B6107F1040331
:1018380046F22800C4F20200194601F043FA4BF6BA
:101848003843C2F2000346F22800C4F202001946E7
:101858004FF0000201F0AAFA46F22800C4F2020092
:101868004FF0010101F0C0FA07F14007BD4680BD05
:1018780080B582B000AF4FF01C033B714FF00003FE
:101888007B714FF00103BB714FF00103FB7107F14E
:101898000403184601F08EFB07F10807BD4680BD1A
:1018A80080B588B000AF4FF00003BB824FF01F0334
:1018B800BB614FF00003BB834FF00003FB8207F1CD
:1018C80014034FF48060C4F20000194600F0D2FA05
:1018D8004FF060033B804FF00003BB814FF00103E2
:1018E8007B804FF01003BB603B464FF48060C4F22E
:1018F8000000194600F06AFC4FF48060C4F2000052
:101908004FF0080100F03CFD4FF48060C4F2000085
:101918004FF0200100F0D2FD4FF48060C4F20000C7
:101928004FF0800100F002FE40F21F43BB614FF010
:101938000003BB824FF00003BB834FF00003FB8220
:1019480007F114034FF40060C4F20000194600F0D8
:1019580091FA4FF060033B804FF001037B804FF01A
:101968000003BB814FF44873BB603B464FF40060F3
:10197800C4F20000194600F017FB4FF40060C4F2EF
:1019880000004FF0080100F0BFFC07F114034FF00E
:101998008040194600F06EFA4FF000033B804FF08C
:1019A80001037B804FF44D73BB604FF00003BB8194
:1019B8003B464FF08040194600F0F6FA4FF0804061
:1019C8004FF0000100F0A0FC40F21D43BB603B4615
:1019D8004FF08040194600F065FB4FF080404FF013
:1019E800000100F0ADFC4FF40060C4F200004FF0BD
:1019F800200100F047FD4FF40060C4F200004FF0F2
:101A0800070100F077FD4FF080404FF0200100F013
:101A180039FD4FF080404FF0070100F06BFD4FF0AB
:101A280080404FF006014FF0010200F0C5FC07F1BD
:101A38002007BD4680BD00BF80B483B000AF78608A
:101A4800396007F10C07BD4680BC704780B400AF11
:101A58001846BD4680BC704780B500AF40F2080309
:101A6800C2F200031A6840F20C03C2F200031B68BA
:101A78001046194601F00CFA0346002B00F0AB8023
:101A880040F20003C2F200031B68002B00F08180C3
:101A980000BF40F20803C2F200031B68184601F0B9
:101AA800DBF90346002BF4D140F20803C2F200032D
:101AB8001A6840F20C03C2F200031B68104619466C
:101AC80001F02AFA4EF64023C2F200031B681A46B8
:101AD8004EF68023C2F200039A6040F20003C2F27D
:101AE80000031A684FF6FF739A4228BF1A464EF64B
:101AF8008023C2F200031A6140F20803C2F2000315
:101B08001B6818464EF68021C2F2000101F0DAF88F
:101B180040F20803C2F200031B6818464FF00101A7
:101B280001F028F94EF64023C2F200031A6840F289
:101B38000003C2F2000319684FF6FF73994238BFD9
:101B48000B464FEA4303D2184EF64023C2F2000375
:101B58001A6040F20003C2F200031A6840F2000360
:101B6800C2F2000319684FF6FF73994238BF0B465B
:101B7800D21A40F20003C2F200031A6040F20803CE
:101B8800C2F200031B6818464FF0010101F0F2F899
:101B980021E040F20803C2F200031B6818464FF028
:101BA800000101F0E7F840F20803C2F200031A68E6
:101BB80040F20C03C2F200031B681046194601F0FC
:101BC800ABF94EF64023C2F200031B6818464FF0EB
:101BD8000001FFF731FF80BD80B500AFFFF73CFF84
:101BE80080BD00BF80B500AFFFF736FF80BD00BFE6
:101BF80080B500AF4FF47050C4F200004FF00201FE
:101C080000F0BEFC0346002B18D040F20403C2F2D9
:101C180000031B68022B07D1FFF718FF03464FF09C
:101C28000400194601F0AAF9FFF710FF03464FF424
:101C38007050C4F20000194600F094FC80BD00BF4B
:101C480080B58AB000AF786039604FF000037B62DE
:101C58004FF000033B624FF00003FB614FF00003BD
:101C6800BB617B681B8A9BB27B627B6A23F440530F
:101C78007B623B68DB887A6A13437B627B6A9AB231
:101C88007B681A827B689B899BB27B627B6A23F4A0
:101C9800B05323F00C037B623B689A883B681B892E
:101CA80013439AB23B685B8913439BB27A6A134326
:101CB8007B627B6A9AB27B689A817B689B8A9BB2BB
:101CC8007B627B6A23F440737B623B689B897A6AF8
:101CD80013437B627B6A9AB27B689A8207F1080396
:101CE800184600F06DFC7A684FF48053C4F2010383
:101CF8009A4206D07A684FF4A053C4F201039A427C
:101D080002D17B693B6201E03B693B627B689B894E
:101D18009BB29BB21BB2002B0FDA3A6A13464FEA0A
:101D280083039B184FEA83029A183B681B684FEAA3
:101D38004303B2FBF3F3FB610EE03A6A13464FEA42
:101D480083039B184FEA83029A183B681B684FEA83
:101D58008303B2FBF3F3FB61FA6948F21F53C5F240
:101D6800EB13A3FB02134FEA53134FEA03137B62EF
:101D78007B6A4FEA13134FF0640202FB03F3FA691C
:101D8800D31ABB617B689B899BB29BB21BB2002BA9
:101D980012DABB694FEAC30303F1320248F21F5358
:101DA800C5F2EB13A3FB02134FEA531303F0070327
:101DB8007A6A13437B6211E0BB694FEA031303F1AC
:101DC800320248F21F53C5F2EB13A3FB02134FEA8A
:101DD800531303F00F037A6A13437B627B6A9AB248
:101DE8007B681A8107F12807BD4680BD80B483B09F
:101DF80000AF78600B46FB70FB78002B08D07B683F
:101E08009B899BB243F400539AB27B689A8107E09E
:101E18007B689B899BB223F400539AB27B689A81B2
:101E280007F10C07BD4680BC704700BF80B483B083
:101E380000AF786013460A467A807B707B78002B67
:101E480008D07B689B8A9AB27B8813439AB27B68D6
:101E58009A820AE07B689B8A9AB27B886FEA0303BE
:101E68009BB213409AB27B689A8207F10C07BD4671
:101E780080BC704780B485B000AF786039604FF09F
:101E88000003FB817B681B88FB817A684FF00003A5
:101E9800C4F201039A421FD07A684FF48063C4F2F7
:101EA80001039A4218D07B68B3F1804F14D07A6846
:101EB8004FF48063C4F200039A420DD07A684FF45D
:101EC8000063C4F200039A4206D07A684FF4406374
:101ED800C4F200039A4208D1FB8923F07003FB8106
:101EE8003B685A88FB891343FB817A684FF4805317
:101EF800C4F200039A420FD07A684FF4A053C4F298
:101F080000039A4208D0FB8923F44073FB813B68A5
:101F18001A89FB891343FB817B68FA891A803B681D
:101F28005A687B68DA623B681A887B681A857A681F
:101F38004FF00003C4F201039A4206D07A684FF4C6
:101F48008063C4F201039A4204D13B689B7A1A4623
:101F58007B681A867B684FF001029A8207F11407A2
:101F6800BD4680BC704700BF80B483B000AF7860C6
:101F78000B46FB70FB78002B08D07B681B889BB254
:101F880043F001039AB27B681A8007E07B681B88DC
:101F98009BB223F001039AB27B681A8007F10C0701
:101FA800BD4680BC704700BF80B485B000AF786084
:101FB80039604FF000037B814FF00003FB814FF045
:101FC8000003BB817B681B8C9BB223F001039AB290
:101FD8007B681A847B681B8CFB817B689B88BB8130
:101FE8007B681B8B7B817B8923F070037B817B89DA
:101FF80023F003037B813B681A887B8913437B8129
:10200800FB8923F00203FB813B689A89FB89134310
:10201800FB813B685A88FB891343FB817A684FF040
:102028000003C4F201039A4206D07A684FF4806331
:10203800C4F201039A4223D1FB8923F00803FB81F0
:102048003B68DA89FB891343FB81FB8923F004038E
:10205800FB813B689A88FB891343FB81BB8923F486
:102068008073BB81BB8923F40073BB813B681A8AE8
:10207800BB891343BB813B685A8ABB891343BB8125
:102088007B68BA899A807B687A891A833B689A68E0
:102098007B685A637B68FA891A8407F11407BD467E
:1020A80080BC704780B485B000AF786039604FF06D
:1020B80000037B814FF00003FB814FF00003BB81DD
:1020C8007B681B8C9BB223F010039AB27B681A843E
:1020D8007B681B8CFB817B689B88BB817B681B8B27
:1020E8007B817B8923F4E0437B817B8923F44073E4
:1020F8007B813B681B884FEA03239AB27B89134391
:102108007B81FB8923F02003FB813B689B894FEA95
:1021180003139AB2FB891343FB813B685B884FEA40
:1021280003139AB2FB891343FB817A684FF00003CB
:10213800C4F201039A4206D07A684FF48063C4F26D
:1021480001039A422FD1FB8923F08003FB813B686E
:10215800DB894FEA03139AB2FB891343FB81FB899E
:1021680023F04003FB813B689B884FEA03139AB234
:10217800FB891343FB81BB8923F48063BB81BB8943
:1021880023F40063BB813B681B8A4FEA83039AB23E
:10219800BB891343BB813B685B8A4FEA83039AB2CE
:1021A800BB891343BB817B68BA899A807B687A892B
:1021B8001A833B689A687B689A637B68FA891A84F1
:1021C80007F11407BD4680BC704700BF80B485B0D6
:1021D80000AF786039604FF000037B814FF0000357
:1021E800FB814FF00003BB817B681B8C9BB223F4FF
:1021F80080739AB27B681A847B681B8CFB817B682E
:102208009B88BB817B689B8B7B817B8923F07003D8
:102218007B817B8923F003037B813B681A887B8958
:1022280013437B81FB8923F40073FB813B689B8903
:102238004FEA03239AB2FB891343FB813B685B880F
:102248004FEA03239AB2FB891343FB817A684FF064
:102258000003C4F201039A4206D07A684FF48063FF
:10226800C4F201039A422FD1FB8923F40063FB8156
:102278003B68DB894FEA03239AB2FB891343FB814E
:10228800FB8923F48063FB813B689B884FEA032327
:102298009AB2FB891343FB81BB8923F48053BB812A
:1022A800BB8923F40053BB813B681B8A4FEA0313A5
:1022B8009AB2BB891343BB813B685B8A4FEA03131D
:1022C8009AB2BB891343BB817B68BA899A807B68C1
:1022D8007A899A833B689A687B68DA637B68FA89AB
:1022E8001A8407F11407BD4680BC704780B483B0D8
:1022F80000AF786039607B683A685A6307F10C0769
:10230800BD4680BC704700BF80B485B000AF786020
:102318000B467B804FF00003FB817B681B8BFB81A6
:10232800FB8923F00803FB81FA897B881343FB812F
:102338007B68FA891A8307F11407BD4680BC704789
:1023480080B485B000AF78600B467B804FF0000307
:10235800FB817B681B8BFB81FB8923F40063FB817A
:102368007B884FEA03239AB2FB891343FB817B687E
:10237800FA891A8307F11407BD4680BC704700BF6D
:1023880080B485B000AF78600B467B804FF00003C7
:10239800FB817B689B8BFB81FB8923F00803FB8116
:1023A800FA897B881343FB817B68FA899A8307F152
:1023B8001407BD4680BC704780B483B000AF786016
:1023C80013460A467A807B707B78002B08D07B689E
:1023D8009B899AB27B8813439AB27B689A810AE0F8
:1023E8007B689B899AB27B886FEA03039BB2134090
:1023F8009AB27B689A8107F10C07BD4680BC70478A
:1024080080B485B000AF78600B467B804FF0000346
:10241800FB734FF00003BB814FF000037B817B68A7
:102428001B8A9AB27B881340BB817B689B899AB2CE
:102438007B8813407B81BB89002B06D07B89002BCE
:1024480003D04FF00103FB7302E04FF00003FB736E
:10245800FB7B184607F11407BD4680BC704700BFD8
:1024680080B483B000AF78600B467B807B886FEACE
:1024780003039AB27B681A8207F10C07BD4680BC39
:10248800704700BF80B485B000AF78600B467B8092
:102498004FF00003FB817B681B89FB81FB8923F0DC
:1024A8007003FB81FA897B881343FB817B68FA8977
:1024B8001A8107F11407BD4680BC704780B483B009
:1024C80000AF78600B467B807B689B889BB223F0CB
:1024D80070039AB27B689A807B689B889AB27B88E3
:1024E80013439AB27B689A8007F10C07BD4680BCFB
:1024F800704700BF80B483B000AF78600B467B8024
:102508007B681B899BB223F007039AB27B681A8108
:102518007B681B899AB27B8813439AB27B681A81BD
:1025280007F10C07BD4680BC704700BF80B483B07C
:1025380000AF78600B467B807B681B899BB223F0D9
:1025480080039AB27B681A817B681B899AB27B8860
:1025580013439AB27B681A8107F10C07BD4680BC09
:10256800704700BF80B483B000AF78600B467B80B3
:102578007B687A889A8107F10C07BD4680BC704752
:1025880080B485B000AF78600B467B804FF00003C5
:10259800FB737B681B899AB27B8813409BB2002B24
:1025A80003D04FF00103FB7302E04FF00003FB730D
:1025B800FB7B184607F11407BD4680BC704700BF77
:1025C80080B489B000AF78604FF00003BB614FF072
:1025D80000037B614FF00003FB614FF002033B6196
:1025E8004FF00003FB604FF00203BB604FF46053F1
:1025F800C4F202039B6803F00C03BB61BB69042BA4
:102608000AD0082B0FD0002B62D17A684FF41053F0
:10261800C0F2F403136062E07A684FF49053C0F29A
:102628007A0313605BE04FF46053C4F202035B6803
:1026380003F480034FEA9353FB604FF46053C4F2F2
:1026480002035B6803F03F03BB60FB68002B15D0F7
:102658004FF49053C0F27A03BA68B3FBF2F24FF426
:102668006053C4F202035B68194647F6C0730B4017
:102678004FEA931303FB02F3FB6114E04FF410538A
:10268800C0F2F403BA68B3FBF2F24FF46053C4F239
:1026980002035B68194647F6C0730B404FEA931371
:1026A80003FB02F3FB614FF46053C4F202035B685F
:1026B80003F440334FEA134303F101034FEA4303A2
:1026C8003B61FA693B69B2FBF3F27B681A6006E08A
:1026D8007A684FF41053C0F2F403136000BF4FF44C
:1026E8006053C4F202039B6803F0F003BB61BB694B
:1026F8004FEA1313BB6140F21003C2F20003BA6938
:102708009B181B78DBB27B617B681A687B6922FAAD
:1027180003F27B685A604FF46053C4F202039B686B
:1027280003F4E053BB61BB694FEA9323BB6140F2FA
:102738001003C2F20003BA699B181B78DBB27B61F5
:102748007B685A687B6922FA03F27B689A604FF4C7
:102758006053C4F202039B6803F46043BB61BB6926
:102768004FEA5333BB6140F21003C2F20003BA6967
:102778009B181B78DBB27B617B685A687B6922FAFD
:1027880003F27B68DA6007F12407BD4680BC704716
:1027980080B483B000AF78600B46FB70FB78002BE9
:1027A8000DD04FF46053C4F202034FF46052C4F2E8
:1027B8000202126B11467A680A431A630EE04FF45C
:1027C8006053C4F202034FF46052C4F20202126B67
:1027D80011467A686FEA02020A401A6307F10C0789
:1027E800BD4680BC704700BF80B483B000AF78603E
:1027F8000B46FB70FB78002B0DD04FF46053C4F2EE
:1028080002034FF46052C4F20202126C11467A6855
:102818000A431A640EE04FF46053C4F202034FF403
:102828006052C4F20202126C11467A686FEA020220
:102838000A401A6407F10C07BD4680BC704700BF08
:1028480080B487B000AF786039604FF000037B61D7
:102858004FF000033B614FF00003FB604FF00003B3
:102868007B618EE07B694FF0010202FA03F33B6162
:102878003B681A683B691340FB60FA683B699A42F7
:102888007BD17B681B681A467B694FEA43034FF08C
:10289800030101FA03F36FEA03031A407B681A6025
:1028A8007B681B681A463B681B7919467B694FEAA7
:1028B800430301FA03F31A437B681A603B681B79E8
:1028C800012B03D03B681B79022B38D17B689B68AE
:1028D8001A467B694FEA43034FF0030101FA03F3F9
:1028E8006FEA03031A407B689A607B689B681A4604
:1028F8003B685B7919467B694FEA430301FA03F3A6
:102908001A437B689A607B685B681A467B699BB24E
:102918004FF0010101FA03F36FEA03031A407B68E1
:102928005A607B685B681A463B689B7919467B69E5
:102938009BB201FA03F39BB21A437B685A607B6827
:10294800DB681A467B699BB24FEA43034FF00301E9
:1029580001FA03F36FEA03031A407B68DA607B68C5
:10296800DB681A463B68DB7919467B694FEA430303
:1029780001FA03F31A437B68DA607B6903F1010308
:102988007B617B690F2B7FF66DAF07F11C07BD4696
:1029980080BC704780B483B000AF78600B467B8002
:1029A8007B687A881A8307F10C07BD4680BC70479C
:1029B80080B483B000AF78600B467B807B685B692E
:1029C8001A467B885A407B685A6107F10C07BD4656
:1029D80080BC704780B485B000AF786013460A4663
:1029E8007A807B704FF00003FB604FF00003BB6000
:1029F8007A787B8803F007034FEA830302FA03F32C
:102A0800FB607B884FEAD3039BB21A467B884FEA68
:102A1800D3039BB219467B6801F1080153F82130B2
:102A280019467B8803F007034FEA83034FF00F0032
:102A380000FA03F36FEA030319407B6802F1080206
:102A480043F822107B884FEAD3039BB21A467B686F
:102A580002F1080253F822301A46FB681343BB60A0
:102A68007B884FEAD3039BB21A467B6802F10802BF
:102A7800B96843F8221007F11407BD4680BC7047B7
:102A880080B483B000AF78607B681B6823F00102D4
:102A98007B681A607B684FF000021A607B684FF011
:102AA80000025A607B684FF000029A607B684FF022
:102AB8000002DA607B684FF000021A617B684FF011
:102AC80021025A617A6846F21003C4F202039A425C
:102AD80007D14FF4C043C4F202034FF03D029A609D
:102AE800EBE07A6846F22803C4F202039A4207D15F
:102AF8004FF4C043C4F202034FF474629A60DCE0FE
:102B08007A6846F24003C4F202039A4207D14FF4AE
:102B1800C043C4F202034FF474129A60CDE07A689D
:102B280046F25803C4F202039A4207D14FF4C04355
:102B3800C4F202034FF074629A60BEE07A6846F20B
:102B48007003C4F202039A4209D14FF4C043C4F29D
:102B580002034FF03D02C2F20002DA60ADE07A688B
:102B680046F28803C4F202039A4209D14FF4C043E3
:102B7800C4F202034FF47462C2F20002DA609CE00D
:102B88007A6846F2A003C4F202039A4209D14FF4CC
:102B9800C043C4F202034FF00002C2F23D02DA6001
:102BA8008BE07A6846F2B803C4F202039A4207D16E
:102BB8004FF4C043C4F202034FF03D52DA607CE0A8
:102BC8007A6846F21043C4F202039A4207D14FF4DE
:102BD800C843C4F202034FF03D029A606DE07A6880
:102BE80046F22843C4F202039A4207D14FF4C8437D
:102BF800C4F202034FF474629A605EE07A6846F2A7
:102C08004043C4F202039A4207D14FF4C843C4F2C6
:102C180002034FF474129A604FE07A6846F2584300
:102C2800C4F202039A4207D14FF4C843C4F2020324
:102C38004FF074629A6040E07A6846F27043C4F2DA
:102C480002039A4209D14FF4C843C4F202034FF079
:102C58003D02C2F20002DA602FE07A6846F2884349
:102C6800C4F202039A4209D14FF4C843C4F20203E2
:102C78004FF47462C2F20002DA601EE07A6846F22B
:102C8800A043C4F202039A4209D14FF4C843C4F2E4
:102C980002034FF00002C2F23D02DA600DE07A68EA
:102CA80046F2B843C4F202039A4206D14FF4C8432D
:102CB800C4F202034FF03D52DA6007F10C07BD463B
:102CC80080BC704780B485B000AF786039604FF041
:102CD8000003FB607B681B68FB60FA6848F23F03EF
:102CE800CFF21C031340FB603B681A683B68DB6843
:102CF8001A433B685B691A433B689B691A433B6804
:102D0800DB691A433B681B6A1A433B685B6A1A43D0
:102D18003B689B6A1A433B685B6B1A433B689B6B37
:102D28001343FA681343FB607B68FA681A607B6890
:102D38005B69FB60FB6823F00703FB603B68DA6AAA
:102D48003B681B6B1343FA681343FB607B68FA68A4
:102D58005A613B681A697B685A603B685A687B68A5
:102D68009A603B689A687B68DA6007F11407BD4689
:102D780080BC704780B483B000AF78600B46FB70AE
:102D8800FB78002B06D07B681B6843F001027B6848
:102D98001A6005E07B681B6823F001027B681A60F3
:102DA80007F10C07BD4680BC704700BF80B485B0F2
:102DB80000AFF860B9607A607B68002B06D0FB68CA
:102DC8001B6843F40022FB681A6005E0FB681B6877
:102DD80023F40022FB681A60FB68BA681A6107F1DD
:102DE8001407BD4680BC704780B483B000AF7860DC
:102DF8000B46FB70FB78002B06D07B681B6843F4FE
:102E080080227B681A6005E07B681B6823F48022B7
:102E18007B681A6007F10C07BD4680BC704700BF8D
:102E280080B485B000AF78604FF00003FB607B682A
:102E38001B6803F40023002B03D04FF00103FB6051
:102E480002E04FF00003FB60FB68184607F1140727
:102E5800BD4680BC704700BF80B485B000AF7860C5
:102E68004FF00003FB737B681B6803F00103DBB2C0
:102E7800002B03D04FF00103FB7302E04FF0000377
:102E8800FB73FB7B184607F11407BD4680BC7047EF
:102E980080B487B000AF786039604FF00003FB75ED
:102EA8004FF00003FB607A6846F20F43C4F2020356
:102EB8009A4205D84FF4C043C4F202033B6104E0D0
:102EC8004FF4C843C4F202033B613B6803F000536C
:102ED800002B03D03B695B68FB6002E03B691B6821
:102EE800FB60FA6840F67D73C0F67D731340FB60A3
:102EF800FA683B681340002B03D04FF00103FB75C1
:102F080002E04FF00003FB75FB7D184607F11C0734
:102F1800BD4680BC704700BF80B485B000AF786004
:102F280039607A6846F20F43C4F202039A4205D820
:102F38004FF4C043C4F20203FB6004E04FF4C843FB
:102F4800C4F20203FB603B6803F00053002B08D077
:102F58003A6840F67D73C0F67D731340FA68D36013
:102F680007E03A6840F67D73C0F67D731340FA684F
:102F7800936007F11407BD4680BC704780B485B0E4
:102F880000AF78600B467B804FF00003FB604FF486
:102F9800E843C4F20003FB60FA687B68D31803F1C6
:102FA8000803FB60FB687A881A6007F11407BD46BE
:102FB80080BC704780B485B000AF78604FF00003E4
:102FC800FB734FF00003BB734FF00F037B737B68F9
:102FD800DB78002B45D04FF46D43CEF20003DB685D
:102FE8006FEA030303F4E0634FEA1323FB73FB7BED
:102FF800C3F10403BB737A7BFB7B42FA03F37B7355
:103008007B685B781A46BB7B02FA03F3FB737B6829
:103018009A787B7B1340DAB2FB7B1343FB73FB7B11
:103028004FEA0313FB734FF46143CEF200037A684F
:1030380012789B18FA7B83F800234FF46143CEF291
:1030480000037A6812784FEA5212D2B27968097886
:1030580001F01F014FF0010000FA01F143F82210BE
:1030680014E04FF46143CEF200037A6812784FEA15
:103078005212D2B27968097801F01F014FF00100AD
:1030880000FA01F102F1200243F8221007F11407B7
:10309800BD4680BC704700BF70B50D4D0D4E761B08
:1030A800B610002403E055F8043B98470134B442B5
:1030B800F9D1094D094E761B02F05AFDB6100024CD
:1030C80003E055F8043B98470134B442F9D170BD88
:1030D800905B0008905B0008905B0008945B000818
:1030E8000101BF01BF01BF01BF01A602BD05BB06AB
:1030F800B909B60BB50CB30EB110B011AE13AC15BF
:10310800AB16A917A819A71AA51BA41DA31DA21FB2
:10311800A020A0219E229D249C249B259A269A27A4
:10312800982897299729962A952B952B942C942C97
:10313800932D922E922E912F903090308F318E3287
:103148008E328D338C348C348C348C348B358B3577
:103158008B358B358B358B358B358B358B358B3567
:103168008B358B358A368A368A368A368A368A3657
:103178008A368A368A368A368A3689378937893747
:103188008937893789378937893789378937893737
:103198008838883789378937893789378937893728
:1031A8008937893789378937893788388838883817
:1031B8008838883888388838883888388838883807
:1031C80087398739873987398739873987398739F7
:1031D80087398738883888388739873987398739E8
:1031E80087398739873987398739873986398739D8
:1031F8008739873987388838883889378E31922EC9
:10320800952A98289A269C239F21A01FA31DA41BBA
:10321800A718A917AA15AD13AE11B00FB20EB30CAB
:10322800B50AB708B907BA051301A8031401BF0105
:10323800BF01BF01BF01BF01BF01BF01BF01BF0186
:10324800BF01BF01BF01BF01BF01A802BD03BC058B
:10325800BA07B808B60BB40CB30EB10FAF12AD1362
:10326800AB16A917A71AA51BA31DA1209E229C2453
:103278009A279729942C922E8E3289388838883844
:103288008838873987398739873987398739873936
:103298008739873987398739863987398739873927
:1032A8008739873987398738883888388739873917
:1032B8008739873987388838883888388838883807
:1032C80088388837883888388838883888388838F7
:1032D80088388837893789378937893789378837E8
:1032E80089378937893789378937893789378936D7
:1032F8008A368A368A3689378937893789368A36C7
:103308008A368A368A368A368A36893789368A36B6
:103318008A368A368A368A368A358B358B358B35A6
:103328008B358B358A368A358B358B358B358B3596
:103338008B358C348C338E328E328F318F31903086
:103348009030912E922E932D932D942B952B962A77
:1033580096299828982899269A269B249C249D2269
:103368009E229F20A01FA21EA21DA41BA51BA6195A
:10337800A718A916AA15AB14AD12AE11B00FB10E4D
:10338800B30BB50AB707B90630018A033201BF018A
:10339800BF01BF01BF01BF01BFBFBFBFBFBFBF00EC
:1033A8003F605C6558675669556B0A02476C0A05A9
:1033B800446C0B06426D0A09406C0A0B406A0B0C00
:1033C80041680A0E40670A1040660A1140640A13F1
:1033D80040620A1540600B16405F0A17415D0A19E2
:1033E800415C0A1A415A0A1B42580A1D42570A1DD3
:1033F80043550A1F43530A2044520A2143510A22C3
:10340800444F0A24444E0A24454C0A25464A0A26B3
:1034180047490A2747470A2848450A2949440A29A3
:103428004A420A2A4B400A2B4C3F0A2B4D3D0A2C94
:103438004E3B0B2C4E3B0A2D4F390A2E50370B2E84
:1034480051360A2F52340A3053320B308F318E32B4
:103458008E328D338C348C348C348C348B358B3564
:103468008B358B358B358B358B358B358B358B3554
:103478008B358B358A368A368A368A368A368A3644
:103488008A368A368A368A368A3689378937893734
:103498008937893789378937893789378937893724
:1034A8008838883789378937893789378937893715
:1034B8008937893789378937893788388838883804
:1034C80088388838883888388838883888388838F4
:1034D80087398739873987398739873987398739E4
:1034E80087398738883888388739873987398739D5
:1034F80087398739873987398739873986398739C5
:103508008739873987388838883889378E31922EB5
:10351800952A98289A269C239F21A01F4947131D66
:10352800464D111B4452111843561017415A0F1596
:10353800405E0F133E610F113D650E0F3D680D0E85
:103548003B6B0D0C3B6D0D0A3A710C083A730C0776
:1035580038760C0538780C03387A447D427F4082EF
:103568003D833C853A87388838873A853C833E8155
:10357800407F427C38010C7A38030C7838050D748A
:1035880039070D7239090D703A0A0D6D3B0C0E6939
:103598003C0E0E673D100E633E120E603F140F5C2A
:1035A8004115105842181054431A1150451C124A1C
:1035B800471E15424B209F229E249B279929972C12
:1035C800932F91338C3888388838873987398739E9
:1035D80087398738873987398739873987398739E4
:1035E80087398739873987398739873888388838D4
:1035F80088388838883887398739873987398739C3
:1036080087398739873888388838883888388838B3
:1036180088388838883888388838883789378937A3
:103628008937893789378937893789378937893792
:1036380089368A368A368937893789378937893783
:10364800893789378937893789368A368A368A3673
:103658008A368A368A368A368A368A368A368A3662
:103668008A368A358B358B358B358B358B358B3553
:103678008B358B358A368A348C328E30902E922C4C
:103688009429972799251434532314375221143930
:10369800521F143C511D143E511B13425018144420
:1036A800501614474F1414495011144C4F0F144E10
:1036B8004F0D14514E0B13544E0913574E06135900
:1036C8004E03145C625E60615D635B665769556CAE
:1036D800526E50714D734D744D734E734D734E73DE
:1036E8004E724F724E724F724F715070526F526ECF
:1036F800536E546C566B576959685C643DC0C0C0C2
:10370800C0C0C00000000000000000000000000071
:1037180000000000000000000000000000000000A1
:103728003F605C6558675669556B0A02476C0A0525
:10373800446C0B06426D0A09406C0A0B406A0B0C7C
:1037480041680A0E40670A1040660A1140640A136D
:1037580040620A1540600B16405F0A17415D0A195E
:10376800415C0A1A415A0A1B42580A1D42570A1D4F
:1037780043550A1F43530A2044520A2143510A223F
:10378800444F0A24444E0A24454C0A25464A0A2630
:1037980047490A2747470A2848450A2949440A2920
:1037A8004A420A2A4B400A2B4C3F0A2B4D3D0A2C11
:1037B8004E3B0B2C4E3B0A2D4F390A2E50370B2E01
:1037C80051360A2F52340A3053320B308F318E3231
:1037D8008E328D338C348C348C348C348B358B35E1
:1037E8008B358B358B358B358B358B358B358B35D1
:1037F8008B358B358A368A368A368A368A368A36C1
:103808008A368A368A368A368A36893789378937B0
:1038180089378937893789378937893789378937A0
:103828008838883789378937893789378937893791
:103838008937893789378937893788388838883880
:103848008838883888388838883888388838883870
:103858008739873987398739873987398739873960
:103868008739873888388838873987398739873951
:103878008739873987398739873987398639873941
:103888008739873987388838883889378E31922E32
:10389800952A98289A269C239F21A01F4947131DE3
:1038A800464D111B4452111843561017415A0F1513
:1038B800405E0F133E610F113D650E0F3D680D0E02
:1038C8003B6B0D0C3B6D0D0A3A710C083A730C07F3
:1038D80038760C0538780C03387A447D427F40826C
:1038E8003D833C853A87388838873A853C833E81D2
:1038F800407F427C457A0D0238780D033A740E05F4
:103908003A720E073A700E083B6D0E0B3C690F0CAD
:103918003D670F0E3E63100F3F601012405C11139D
:1039280042581116435412174550121A474A141B8D
:103938004B42161DA1209E229C249A279729942C3D
:10394800922E8E328938883888388838873987396E
:10395800873987398739873987398739873987395F
:103968008739863987398739873987398739873950
:103978008738883888388739873987398739873841
:103988008838883888388838883888388837883830
:103998008838883888388838883888388837893720
:1039A8008937893789378937883789378937893710
:1039B800893789378937893789368A368A368A3600
:1039C80089378937893789368A368A368A368A36F0
:1039D8008A368A36893789368A368A368A368A36E0
:1039E8008A368A358B358B358B358B358B358A36D0
:1039F8008A358B358B358B358B358B358C348C33C1
:103A08008E328E3251340A314F3709314D390A30EE
:103A18004B3C0930493E0A2E4742092E45440A2D9F
:103A28004347092D41490A2B404C092B3E4E0A2A8F
:103A38003C5109293A540A283857092836590A2680
:103A4800355C0926335E0A243261092430630A2270
:103A58002F6609222C690A202B6C091F2A6E0A1E60
:103A68002871091D27730A1B2874091B29730A1951
:103A78002B7309182C730A162E7309153072091442
:103A880032720912337209113572090F3771090E32
:103A980039700A0B3D6F090A3F6E0A07426E090624
:103AA800456C0A03496B576959685C643DC0C0C0DE
:103AB800C0C0C000000000000000000000000000BE
:103AC8000101BF01BF01BF01BF01A602BD05BB06C1
:103AD800B909B60BB50CB30EB110B0113302791396
:103AE800310477152F0577162D0775172C097319CB
:103AF8002A0B721A280D701B280E6E1D26106D1DBC
:103B080025126B1F241369202315682121176622AB
:103B1800211864241F1A63241F1B61251E1D5F269C
:103B28001E1D5F271C1F5D281C205B291C215A298C
:103B38001B23582A1B24562B1B25552B1A27532C7D
:103B48001A28522C1A29502D1A2A4E2E192C4D2E6D
:103B5800192D4B2F192E4930192F4830193046315D
:103B6800193045321931443219324233183440344D
:103B780018353F3418353F3418353F3418353E353D
:103B880018353E3517363E3517363E3517363E352D
:103B980017353F3517353F3517353F3517353F351D
:103BA80017353F3516363F3516363F3516363E360D
:103BB80016363E3616363E3616363E3616353F36FD
:103BC80015363F3615363F3615363F3615363F36ED
:103BD80015363F3615363F3615363E3714373E37DD
:103BE80014373E3714373E3714373E3714373E37CD
:103BF80014363F3714363F3713373F3713373F37BD
:103C080013373F3713373E3813373E3714373E37AD
:103C180014373E3714373E3713383E3713383E379C
:103C280013373F3713373F3713373F3713373F378C
:103C380013373F3712383F3712383E3812383E387C
:103C480012383E3812383E3812383E3812373F386C
:103C580011383F3811383F3811383F3811383F385C
:103C680011383F3811383E3911383E3910393E394C
:103C780010393E3910393E3910383F3910383F393C
:103C880010383F3910383F390F393F3810393F382D
:103C980010393F3810393E3910393E3910393E391C
:103CA80010393E3910393E390F393F390F393F390C
:103CB8000F393F390F393F390F393F390F393E39FD
:103CC80010393E3910393E3910393E3910393E38ED
:103CD80011393E3812383E381236413712304C31DD
:103CE800132D522E132B572A15275C2815256026CD
:103CF8001523642316216821171E6B1F181C1547EE
:103D0800131D181B134D111B1A18125211181B17CB
:103D1800115610171C14115A0F151D13105E0F138E
:103D28001E1010610F111F0F0F650E0F210D0F6868
:103D38000D0E210B0F6B0D0C23090F6D0D0A2408B6
:103D48000E710C0826060E730C0727040D760C0559
:103D580028030D780C03387A447D427F40823D83E6
:103D68003C853A87388838873A853C833E81407F4E
:103D7800427C457A0D0238780D033A740E053A7282
:103D88000E073A700E083B6D0E0B3C690F0C3D6731
:103D98000F0E3E63100F3F601012405C1113425823
:103DA8001116435412174550121A474A141B4B4216
:103DB800161DA1209E229C249A279729942C922E86
:103DC8008E328938883888388838873987398739EA
:103DD80087398739873987398739873987398739DB
:103DE80086398739873987398739873987398738CD
:103DF80088388838873987398739873987388838BC
:103E080088388838883888388838883788388838AB
:103E1800883888388838883888388837893789379B
:103E2800893789378937883789378937893789378B
:103E380089378937893789368A368A368A3689377B
:103E48008937893789368A368A368A368A368A366B
:103E58008A36893789368A368A368A368A368A365B
:103E68008A358B358B358B358B358B358A368A354C
:103E78008B358B358B358B358B358C348C338E323B
:103E88008E328F318F3190309030912E922E932D2B
:103E9800932D942B952B962A96299828982899261D
:103EA8009A269B249C249D229E229F20A01FA21E0E
:103EB800A21DA41BA51BA619A718A916AA15AB1401
:103EC800AD12AE11B00FB10EB30BB50AB707B906F4
:103ED80030018A033201BF01BF01BF01BF01BF0129
:103EE800BFC0C0C0C0C0C00000000000000000008B
:103EF80000000000000000000000000000000000BA
:103F08003F605C6558675669556B536C536C536DCD
:103F1800536C556A586858675A664E020B644E04CB
:103F28000B624E050C604E070C5F4D090C5D4D0B86
:103F38000C5C4C0D0C5A4D0E0C584D100C574C1275
:103F48000C554D130C534D150C524C170B514D1865
:103F58000B4F4D1A0B4E4D1B0B4C4D1D0B4A4E1D56
:103F68000C494D1F0C474E200C454F210C444E2345
:103F78000C424F240C4050250C3F4F270C3D502835
:103F88000C3B51290B3B512A0B39512C0B37522D25
:103F98000B36522E0B34532F0B3254309030903155
:103FA8008F328D348C358B358B358B358B358A3606
:103FB8008A368A368A358B358B358B358B358A36FA
:103FC8008A368A368A368A368A368A358A368A36EA
:103FD8008A368A368A368A368A36893789378937D9
:103FE8008937893789368A368937893789378937CA
:103FF80089378937893789378838883888378937BA
:1040080089378937893788388838883888388838A8
:104018008838883788388838883888388838883899
:104028008838873987398739873888388838883889
:104038008739873987398739873987398739873978
:104048008639873987398739873987398739873969
:10405800873987398739883888368A30902D932B65
:10406800962799259B239D21A01EA21C1547481B16
:10407800134D46181252441711564314115A41133E
:10408800105E401010613F0F0F653E0D0F683C0B2E
:104098000F6B3C090F6D3B080E713A060E733A041C
:1040A8000D7639030D78477A447D427F40823D83FF
:1040B8003C853A87388838873A853C833E81407FFB
:1040C800427C457A0D0238780D033A740E053A722F
:1040D8000E073A700E083B6D0E0B3C690F0C3D67DE
:1040E8000F0E3E63100F3F601012405C11134258D0
:1040F8001116435412174550121A474A141B4B42C3
:10410800161DA1209E229C249A279729942C922E32
:104118008E32893888388838883887398739873996
:104128008739873987398739873987398739873987
:104138008639873987398739873987398739873879
:104148008838883887398739873987398738883868
:104158008838883888388838883888378838883858
:104168008838883888388838883888378937893748
:104178008937893789378837893789378937893738
:1041880089378937893789368A368A368A36893728
:104198008937893789368A368A368A368A368A3618
:1041A8008A36893789368A368A368A368A368A3608
:1041B8008A358B358B358B358B358B358A368A35F9
:1041C8008B358B358B358B358B358C348C338E32E8
:1041D8008E3251340A314F3709314D390A304B3C50
:1041E8000930493E0A2E4742092E45440A2D4347C5
:1041F800092D41490A2B404C092B3E4E0A2A3C51B5
:1042080009293A540A283857092836590A26355CA4
:104218000926335E0A243261092430630A222F6694
:1042280009222C690A202B6C091F2A6E0A1E287184
:10423800091D27730A1B2874091B29730A192B7374
:1042480009182C730A162E73091530720914327264
:104258000912337209113572090F3771090E397055
:104268000A0B3D6F090A3F6E0A07426E0906456C44
:104278000A03496B576959685C643DC0C0C0C0C037
:10428800C000000000000000000000000000000066
:104298000000000000000000000000000000000016
:1042A8003F605C6558675669556B536C536C536D2A
:1042B800536C556A586858675A664E020B644E0428
:1042C8000B624E050C604E070C5F4D090C5D4D0BE3
:1042D8000C5C4C0D0C5A4D0E0C584D100C574C12D2
:1042E8000C554D130C534D150C524C170B514D18C2
:1042F8000B4F4D1A0B4E4D1B0B4C4D1D0B4A4E1DB3
:104308000C494D1F0C474E200C454F210C444E23A1
:104318000C424F240C4050250C3F4F270C3D502891
:104328000C3B51290B3B512A0B39512C0B37522D81
:104338000B36522E0B34532F0B32543090309031B1
:104348008F328D348C358B358B358B358B358A3662
:104358008A368A368A358B358B358B358B358A3656
:104368008A368A368A368A368A368A358A368A3646
:104378008A368A368A368A368A3689378937893735
:104388008937893789368A36893789378937893726
:104398008937893789378937883888388837893716
:1043A8008937893789378838883888388838883805
:1043B80088388837883888388838883888388838F6
:1043C80088388739873987398738883888388838E6
:1043D80087398739873987398739873987398739D5
:1043E80086398739873987398739873987398739C6
:1043F800873987398739883888368A30902D932BC2
:10440800962799259B239D21A01EA21C1547481B72
:10441800134D46181252441711564314115A41139A
:10442800105E401010613F0F0F653E0D0F683C0B8A
:104438000F6B3C090F6D3B080E713A060E733A0478
:104448000D7639030D78477A447D427F40823D835B
:104458003C853A87388838873A853C833E81407F57
:10446800427C38010C7A0D0229030C780D032805CB
:104478000D740E0526070D720E0724090D700E081F
:10448800240A0D6D0E0B220C0E690F0C210E0E67FF
:104498000F0E20100E63100F1F120E6010121D1445
:1044A8000F5C11131D15105811161B1810541217F4
:1044B8001A1A1150121A191C124A141B181E1542E6
:1044C800161D182069201622662216246224152734
:1044D8005E2714295A29142C542C132F502E1333C9
:1044E800483212383F3811383F3811383F381039C0
:1044F8003F3810393E3910393E3910393E391038B5
:104508003F390F393F390F393F390F393F390F39A3
:104518003F390F393F390F393F390F393F390F3993
:104528003E3910393E3910393E3910393E39103884
:104538003F3910383F3910383F3910383F38113873
:104548003F3811383F3810393E3910393E39103963
:104558003E3910393E3910393E3811393E38113953
:104568003E3811383F3811383F3811383F38113844
:104578003F3811383F3712383E3812383E38123833
:104588003E3812383E3812383E3812383E38123724
:104598003F3812373F3713373F3713373F37133713
:1045A8003F3713373F3713373F3713373E37143703
:1045B8003E3714373E3714373E3714363F371436F4
:1045C8003F3714363F3713373F3713373F361437E3
:1045D8003F3614373F3614373F3614373E371437D3
:1045E8003E3714373E3714373E3615363F361536C4
:1045F8003F3615363F3615363F3615363F361536B3
:104608003F3615363E3715363E3616363E361636A2
:104618003E3616363E3616363E3616363E36163593
:104628003F3517353F3517353F3517353F35173582
:104638003F3517353F3517353E3617353E35183572
:104648003E3517363E351734403517324235173068
:104658004435172E4734172C493318294D3218275B
:104668004F32182514340A31182314370931182108
:1046780014390A30181F143C0930181D143E0A2E2C
:10468800191B1342092E191814440A2D1916144718
:10469800092D191414490A2B1B11144C092B1B0F33
:1046A800144E0A2A1B0D145109291C0B13540A28ED
:1046B8001C09135709281D0613590A261E03145CE2
:1046C8000926335E0A243261092430630A222F66E0
:1046D80009222C690A202B6C091F2A6E0A1E2871D0
:1046E800091D27730A1B2874091B29730A192B73C0
:1046F80009182C730A162E730915307209143272B0
:104708000912337209113572090F3771090E3970A0
:104718000A0B3D6F090A3F6E0A07426E0906456C8F
:104728000A03496B576959685C643DC0C0C0C0C082
:10473800C0000000000000000000000000000000B1
:104748003F605C6558675669556B0A02476C0A05F5
:10475800446C0B06426D0A09406C0A0B406A0B0C4C
:1047680041680A0E40670A1040660A1140640A133D
:1047780040620A1540600B16405F0A17415D0A192E
:10478800415C0A1A415A0A1B42580A1D42570A1D1F
:1047980043550A1F43530A2044520A2143510A220F
:1047A800444F0A24444E0A24454C0A25464A0A2600
:1047B80047490A2747470A2848450A2949440A29F0
:1047C8004A420A2A4B400A2B4C3F0A2B4D3D0A2CE1
:1047D8004E3B0B2C4E3B0A2D4F390A2E50370B2ED1
:1047E80051360A2F52340A3053320B308F318E3201
:1047F8008E328D338C348C348C348C348B358B35B1
:104808008B358B358B358B358B358B358B358B35A0
:104818008B358B358A368A368A368A368A368A3690
:104828008A368A368A368A368A3689378937893780
:104838008937893789378937893789378937893770
:104848008838883789378937893789378937893761
:104858008937893789378937893788388838883850
:104868008838883888388838883888388838883840
:104878008739873987398739873987398739873930
:104888008739873888388838873987398739873921
:104898008739873987398739873987398639873911
:1048A8008739873987388838883889378E31922E02
:1048B800952A98289A269C239F21A01FA31DA41BF4
:1048C800A718A917AA15AD13AE11B00FB20EB30CE5
:1048D800B50AB708B907BA051301A8031401BF013F
:1048E800BF01BF01BF01BF01BF01BF01BF01BF01C0
:1048F800BF01BF01BF01BF01BF01A802BD03BC05C5
:10490800BA07B808B60BB40CB30EB10FAF12AD139B
:10491800AB16A917A71AA51BA31DA1209E229C248C
:104928009A279729942C922E8E328938883888387D
:10493800883887398739873987398739873987396F
:104948008739873987398739863987398739873960
:104958008739873987398738883888388739873950
:104968008739873987388838883888388838883840
:104978008838883788388838883888388838883830
:104988008838883789378937893789378937883721
:104998008937893789378937893789378937893610
:1049A8008A368A368A3689378937893789368A3600
:1049B8008A368A368A368A368A36893789368A36F0
:1049C8008A368A368A368A368A358B358B358B35E0
:1049D8008B358B358A368A358B358B358B358B35D0
:1049E8008B358C348C338E328E328F318F319030C0
:1049F8009030912E922E932D932D942B952B962AB1
:104A080096299828982899269A269B249C249D22A2
:104A18009E229F20A01FA21EA21DA41BA51BA61993
:104A2800A718A916AA15AB14AD12AE11B00FB10E86
:104A3800B30BB50AB707B90630018A033201BF01C3
:104A4800BF01BF01BF01BF01BFC0C0C0C0C0C0001F
:104A5800000000000000000000000000000000004E
:104A68003F605C6558675669556B0A02476C0A05D2
:104A7800446C0B06426D0A09406C0A0B406A0B0C29
:104A880041680A0E40670A1040660A1133020B6437
:104A98000A1331040B620A152F050C600B162D073B
:104AA8000C5F0A172C090C5D0A192A0B0C5C0A1AF0
:104AB800280D0C5A0A1B280E0C580A1D26100C57D4
:104AC8000A1D25120C550A1F24130C530A202315FE
:104AD8000C520A2121170B510A2221180B4F0A24C4
:104AE8001F1A0B4E0A241F1B0B4C0A251E1D0B4AAE
:104AF8000A261E1D0C490A271C1F0C470A281C20C1
:104B08000C450A291C210C440A291B230C420A2A99
:104B18001B240C400A2B1B250C3F0A2B1A270C3D83
:104B28000A2C1A280C3B0B2C1A290B3B0A2D1A2A83
:104B38000B390A2E192C0B370B2E192D0B360A2F71
:104B4800192E0B340A30192F0B320B30193046311D
:104B5800193045321931443219324233183440344D
:104B680018353F3418353F3418353F3418353E353D
:104B780018353E3517363E3517363E3517363E352D
:104B880017353F3517353F3517353F3517353F351D
:104B980017353F3516363F3516363F3516363E360D
:104BA80016363E3616363E3616363E3616353F36FD
:104BB80015363F3615363F3615363F3615363F36ED
:104BC80015363F3615363F3615363E3714373E37DD
:104BD80014373E3714373E3714373E3714373E37CD
:104BE80014363F3714363F3713373F3713373F37BD
:104BF80013373F3713373E3813373E3714373E37AE
:104C080014373E3714373E3713383E3713383E379C
:104C180013373F3713373F3713373F3713373F378C
:104C280013373F3712383F3712383E3812383E387C
:104C380012383E3812383E3812383E3812373F386C
:104C480011383F3811383F3811383F3811383F385C
:104C580011383F3811383E3911383E3910393E394C
:104C680010393E3910393E3910383F3910383F393C
:104C780010383F3910383F390F393F3810393F382D
:104C880010393F3810393E3910393E3910393E391C
:104C980010393E3910393E390F393F390F393F390C
:104CA8000F393F390F393F390F393F390F393E39FD
:104CB80010393E3910393E3910393E3910393E38ED
:104CC80011393E3812383E381236413712304C31DD
:104CD800132D522E132B572A15275C2815256026CD
:104CE8001523642316216821171E6B1F181C1547EE
:104CF800131D181B134D111B1A18125211181B17CC
:104D0800115610171C14115A0F151D13105E0F138E
:104D18001E1010610F111F0F0F650E0F210D0F6868
:104D28000D0E210B0F6B0D0C23090F6D0D0A2408B6
:104D38000E710C0826060E730C0727040D760C0559
:104D480028030D780C03387A447D427F40823D83E6
:104D58003C853A87388838873A853C833E81407F4E
:104D6800427C38010C7A0D0229030C780D032805C2
:104D78000D740E0526070D720E0724090D700E0816
:104D8800240A0D6D0E0B220C0E690F0C210E0E67F6
:104D98000F0E20100E63100F1F120E6010121D143C
:104DA8000F5C11131D15105811161B1810541217EB
:104DB8001A1A1150121A191C124A141B181E1542DD
:104DC800161D18206920162266221624622415272B
:104DD8005E2714295A29142C542C132F502E1333C0
:104DE800483212383F3811383F3811383F381039B7
:104DF8003F3810393E3910393E3910393E391038AC
:104E08003F390F393F390F393F390F393F390F399A
:104E18003F390F393F390F393F390F393F390F398A
:104E28003E3910393E3910393E3910393E3910387B
:104E38003F3910383F3910383F3910383F3811386A
:104E48003F3811383F3810393E3910393E3910395A
:104E58003E3910393E3910393E3811393E3811394A
:104E68003E3811383F3811383F3811383F3811383B
:104E78003F3811383F3712383E3812383E3812382A
:104E88003E3812383E3812383E3812383E3812371B
:104E98003F3812373F3713373F3713373F3713370A
:104EA8003F3713373F3713373F3713373E371437FA
:104EB8003E3714373E3714373E3714363F371436EB
:104EC8003F3714363F3713373F3713373F361437DA
:104ED8003F3614373F3614373F3614373E371437CA
:104EE8003E3714373E3714373E3615363F361536BB
:104EF8003F3615363F3615363F3615363F361536AA
:104F08003F3615363E3715363E3616363E36163699
:104F18003E3616363E3616363E3616363E3616358A
:104F28003F3517353F3517353F3517353F35173579
:104F38003F3517353F3517353E3617353E35183569
:104F48003E3517363E35173440351732423517305F
:104F58004435172E4734172C493318294D32182752
:104F68004F32182514340A311823143709311821FF
:104F780014390A30181F143C0930181D143E0A2E23
:104F8800191B1342092E191814440A2D191614470F
:104F9800092D191414490A2B1B11144C092B1B0F2A
:104FA800144E0A2A1B0D145109291C0B13540A28E4
:104FB8001C09135709281D0613590A261E03145CD9
:104FC8000926335E0A243261092430630A222F66D7
:104FD80009222C690A202B6C091F2A6E0A1E2871C7
:104FE800091D27730A1B2874091B29730A192B73B7
:104FF80009182C730A162E730915307209143272A7
:105008000912337209113572090F3771090E397097
:105018000A0B3D6F090A3F6E0A07426E0906456C86
:105028000A03496B576959685C643DC0C0C0C0C079
:10503800C0000000000000000000000000000000A8
:105048003F605C6558675669556B0A02476C0A05EC
:10505800446C0B06426D0A09406C0A0B406A0B0C43
:1050680041680A0E40670A1040660A1133020B6451
:105078000A1331040B620A152F050C600B162D0755
:105088000C5F0A172C090C5D0A192A0B0C5C0A1A0A
:10509800280D0C5A0A1B280E0C580A1D26100C57EE
:1050A8000A1D25120C550A1F24130C530A20231518
:1050B8000C520A2121170B510A2221180B4F0A24DE
:1050C8001F1A0B4E0A241F1B0B4C0A251E1D0B4AC8
:1050D8000A261E1D0C490A271C1F0C470A281C20DB
:1050E8000C450A291C210C440A291B230C420A2AB4
:1050F8001B240C400A2B1B250C3F0A2B1A270C3D9E
:105108000A2C1A280C3B0B2C1A290B3B0A2D1A2A9D
:105118000B390A2E192C0B370B2E192D0B360A2F8B
:10512800192E0B340A30192F0B320B301930463137
:105138001930453219314432193242331834403467
:1051480018353F3418353F3418353F3418353E3557
:1051580018353E3517363E3517363E3517363E3547
:1051680017353F3517353F3517353F3517353F3537
:1051780017353F3516363F3516363F3516363E3627
:1051880016363E3616363E3616363E3616353F3617
:1051980015363F3615363F3615363F3615363F3607
:1051A80015363F3615363F3615363E3714373E37F7
:1051B80014373E3714373E3714373E3714373E37E7
:1051C80014363F3714363F3713373F3713373F37D7
:1051D80013373F3713373E3813373E3714373E37C8
:1051E80014373E3714373E3713383E3713383E37B7
:1051F80013373F3713373F3713373F3713373F37A7
:1052080013373F3712383F3712383E3812383E3896
:1052180012383E3812383E3812383E3812373F3886
:1052280011383F3811383F3811383F3811383F3876
:1052380011383F3811383E3911383E3910393E3966
:1052480010393E3910393E3910383F3910383F3956
:1052580010383F3910383F390F393F3810393F3847
:1052680010393F3810393E3910393E3910393E3936
:1052780010393E3910393E390F393F390F393F3926
:105288000F393F390F393F390F393F390F393E3917
:1052980010393E3910393E3910393E3910393E3807
:1052A80011393E3812383E381236413712304C31F7
:1052B800132D522E132B572A15275C2815256026E7
:1052C8001523642316216821171E6B1F181C154708
:1052D800131D181B134D111B1A18125211181B17E6
:1052E800115610171C14115A0F151D13105E0F13A9
:1052F8001E1010610F111F0F0F650E0F210D0F6883
:105308000D0E210B0F6B0D0C23090F6D0D0A2408D0
:105318000E710C0826060E730C0727040D760C0573
:1053280028030D780C03387A447D427F40823D8300
:105338003C853A87388838873A853C833E81407F68
:10534800427C457A0D0238780D033A740E053A729C
:105358000E073A700E083B6D0E0B3C690F0C3D674B
:105368000F0E3E63100F3F601012405C111342583D
:105378001116435412174550121A474A141B4B4230
:10538800161DA1209E229C249A279729942C922EA0
:105398008E32893888388838883887398739873904
:1053A80087398739873987398739873987398739F5
:1053B80086398739873987398739873987398738E7
:1053C80088388838873987398739873987388838D6
:1053D80088388838883888388838883788388838C6
:1053E80088388838883888388838883789378937B6
:1053F80089378937893788378937893789378937A6
:1054080089378937893789368A368A368A36893795
:105418008937893789368A368A368A368A368A3685
:105428008A36893789368A368A368A368A368A3675
:105438008A358B358B358B358B358B358A368A3566
:105448008B358B358B358B358B358C348C338E3255
:105458008E3251340A314F3709314D390A304B3CBD
:105468000930493E0A2E4742092E45440A2D434732
:10547800092D41490A2B404C092B3E4E0A2A3C5122
:1054880009293A540A283857092836590A26355C12
:105498000926335E0A243261092430630A222F6602
:1054A80009222C690A202B6C091F2A6E0A1E2871F2
:1054B800091D27730A1B2874091B29730A192B73E2
:1054C80009182C730A162E730915307209143272D2
:1054D8000912337209113572090F3771090E3970C3
:1054E8000A0B3D6F090A3F6E0A07426E0906456CB2
:1054F8000A03496B576959685C643DC0C0C0C0C0A5
:10550800C0000000000000000000000000000000D3
:105518000000000000000000000000000000000083
:105528003F605C6558675669556B0A02476C0A0507
:10553800446C0B06426D0A09406C0A0B406A0B0C5E
:1055480041680A0E40670A1040660A1133020B646C
:105558000A1331040B620A152F050C600B162D0770
:105568000C5F0A172C090C5D0A192A0B0C5C0A1A25
:10557800280D0C5A0A1B280E0C580A1D26100C5709
:105588000A1D25120C550A1F24130C530A20231533
:105598000C520A2121170B510A2221180B4F0A24F9
:1055A8001F1A0B4E0A241F1B0B4C0A251E1D0B4AE3
:1055B8000A261E1D0C490A271C1F0C470A281C20F6
:1055C8000C450A291C210C440A291B230C420A2ACF
:1055D8001B240C400A2B1B250C3F0A2B1A270C3DB9
:1055E8000A2C1A280C3B0B2C1A290B3B0A2D1A2AB9
:1055F8000B390A2E192C0B370B2E192D0B360A2FA7
:10560800192E0B340A30192F0B320B301930463152
:105618001930453219314432193242331834403482
:1056280018353F3418353F3418353F3418353E3572
:1056380018353E3517363E3517363E3517363E3562
:1056480017353F3517353F3517353F3517353F3552
:1056580017353F3516363F3516363F3516363E3642
:1056680016363E3616363E3616363E3616353F3632
:1056780015363F3615363F3615363F3615363F3622
:1056880015363F3615363F3615363E3714373E3712
:1056980014373E3714373E3714373E3714373E3702
:1056A80014363F3714363F3713373F3713373F37F2
:1056B80013373F3713373E3813373E3714373E37E3
:1056C80014373E3714373E3713383E3713383E37D2
:1056D80013373F3713373F3713373F3713373F37C2
:1056E80013373F3712383F3712383E3812383E38B2
:1056F80012383E3812383E3812383E3812373F38A2
:1057080011383F3811383F3811383F3811383F3891
:1057180011383F3811383E3911383E3910393E3981
:1057280010393E3910393E3910383F3910383F3971
:1057380010383F3910383F390F393F3810393F3862
:1057480010393F3810393E3910393E3910393E3951
:1057580010393E3910393E390F393F390F393F3941
:105768000F393F390F393F390F393F390F393E3932
:1057780010393E3910393E3910393E3910393E3822
:1057880011393E3812383E381236413712304C3112
:10579800132D522E132B572A15275C281525602602
:1057A8001523642316216821171E6B1F181C6F1DF3
:1057B800181B711B1A1875181B1777171C147A15E4
:1057C8001D137D131E1080111F0F820F210D840ED3
:1057D800210B870C2309890A24088B0826068D07C4
:1057E80027048F05280391031401BF01BF01BF01DE
:1057F800BF01BF01BF01BF01BF01BF01BF01BF01A1
:10580800BF01BF01D40193022903910328058F0525
:1058180026078D0724098B08240A880B220C860C7E
:10582800210E840E2010810F1F127E121D147C136E
:105838001D1579161B1876171A1A731A191C701B5E
:10584800181E6D1D1820692016226622162462244F
:1058580015275E2714295A29142C542C132F502E3F
:105868001333483212383F3811383F3811383F382F
:1058780010393F3810393E3910393E3910393E3920
:1058880010383F390F393F390F393F390F393F3910
:105898000F393F390F393F390F393F390F393F3900
:1058A8000F393E3910393E3910393E3910393E39F1
:1058B80010383F3910383F3910383F3910383F38E1
:1058C80011383F3811383F3810393E3910393E39D0
:1058D80010393E3910393E3910393E3811393E38C1
:1058E80011393E3811383F3811383F3811383F38B0
:1058F80011383F3811383F3712383E3812383E38A1
:1059080012383E3812383E3812383E3812383E388F
:1059180012373F3812373F3713373F3713373F3780
:1059280013373F3713373F3713373F3713373E3770
:1059380014373E3714373E3714373E3714363F375F
:1059480014363F3714363F3713373F3713373F3650
:1059580014373F3614373F3614373F3614373E373F
:1059680014373E3714373E3714373E3615363F3630
:1059780015363F3615363F3615363F3615363F361F
:1059880015363F3615363E3715363E3616363E3610
:1059980016363E3616363E3616363E3616363E36FF
:1059A80016353F3517353F3517353F3517353F35F0
:1059B80017353F3517353F3517353E3617353E35E0
:1059C80018353E3517363E351734403517324235CF
:1059D80017304435172E4734172C493318294D32C0
:1059E80018274F32182514340A311823143709316F
:1059F800182114390A30181F143C0930181D143E98
:105A08000A2E191B1342092E191814440A2D1916A7
:105A18001447092D191414490A2B1B11144C092B6E
:105A28001B0F144E0A2A1B0D145109291C0B135461
:105A38000A281C09135709281D0613590A261E038C
:105A4800145C0926335E0A243261092430630A2271
:105A58002F6609222C690A202B6C091F2A6E0A1E40
:105A68002871091D27730A1B2874091B29730A1931
:105A78002B7309182C730A162E7309153072091422
:105A880032720912337209113572090F3771090E12
:105A980039700A0B3D6F090A3F6E0A07426E090604
:105AA800456C0A03496B576959685C643DC0C0C0BE
:105AB800C0C0C0000000000000000000000000009E
:105AC8003F0000FC0F0000F80F0000F00F0000E09E
